:020000040800F2
:1000000090100020250A00087104000873040008FD
:10001000770400087B0400087F040008000000004B
:100020000000000000000000000000008304000841
:100030008504000800000000870400088904000807
:100040003F0A00083F0A00083F0A00083F0A00086C
:100050003F0A00083F0A00083F0A00083F0A00085C
:100060003F0A0008010700083F0A00088B04000847
:100070003F0A00083F0A00083F0A00083F0A00083C
:100080003F0A00083F0A00083F0A00083F0A00082C
:100090003F0A00083F0A00083F0A0008A5070008B9
:1000A0003F0A00083F0A00083F0A00083F0A00080C
:1000B0003F0A0008430500089F0600083F0A0008A1
:1000C0003F0A00083F0A00083F0A00083F0A0008EC
:1000D0003F0A0008392C00083F0A00083F0A0008C0
:1000E0003F0A00083F0A00083F0A0008DFF80CD06A
:1000F00005F0B8FD00480047B50200089010002048
:100100002DE9FF474FF0000A00BF27E00AF1C000C9
:1001100005F093FB8046A74AA74B05F00EFB064669
:1001200006F07AFB04460022A44B05F006FB0022F1
:10013000A34BCDE9000105F059FACDE9020105F024
:10014000C7FBA04921F81A00084630F81A109EA0F3
:1001500005F0CAFD0AF101001FFA80FABAF1FF0F9B
:10016000D4DD9AA005F0C0FD4FF0000A2FE0BAF1EF
:10017000800F11DA504605F05BFB0646944905F006
:10018000C5F90546934905F069F9044605F08CFB6D
:10019000914921F81A0010E0504605F049FB064647
:1001A0008E4905F0B3F905468D4905F057F9044627
:1001B00005F07AFB884921F81A00874830F81A10B0
:1001C00081A005F091FD0AF101001FFA80FABAF151
:1001D000FF0FCCDD7DA005F087FD4FF0000A17E092
:1001E000BAF1640F05DA4FF4AF607E4921F81A00C6
:1001F00004E04FF47A707B4921F81A00794830F80E
:100200001A1071A005F070FD0AF101001FFA80FAC2
:10021000BAF1FF0FE4DD6DA005F066FD4FF0000AB6
:100220003EE0BAF1800F17DA504605F017FB6E4A30
:100230006E4BCDE9020105F080FA804606F0AAF97E
:10024000064600225E4B05F0D1F9044605F040FB5E
:10025000674921F81A0019E0AAF1800005F0EDFACB
:10026000614A624BCDE9020105F067FA064606F0E5
:1002700091F981F0004104460022514B05F0B6F996
:10028000804605F025FB5A4921F81A00584830F8F5
:100290001A104DA005F028FD0AF101001FFA80FA9E
:1002A000BAF1FF0FBDDD49A005F01EFD002004B02E
:1002B000BDE8F0878CB028224EA102A805F074F8A2
:1002C0004FF4E13002F068FC54A005F00DFD58A099
:1002D00005F00AFD5AA005F007FD0021084601F0CF
:1002E00049FD01F09FFC01F010FF00F0ADFB02F0B2
:1002F0001AFA01F05FFC57490988A1F1280005F0BE
:100300008EFA0446544905F033F95449C860C86868
:10031000534905F0FBF806464E49088805F088FA6F
:100320000746314605F0ECF805464FF0804105F0F0
:100330001FF9044605F09FFA00B2484988824549F2
:100340004988A1F1280005F06AFA0446454905F0FC
:100350000FF9424908610869434905F0D7F8064694
:100360003C49488805F064FA0746314605F0C8F86C
:1003700005464FF0804105F0FBF8044605F07BFA96
:1003800000B23649C88202F0F5FA02F069FAFFF7C6
:10039000B7FE0DE0102002230090344802880021AF
:1003A0004FF48C7001F04DF900F003FC00F053FEA7
:1003B000F0E70000D2B22D42F037993F00007940BB
:1003C00000E095404C00002025642C000A0D000040
:1003D0000000C84000007A444C0200202693C9C0A7
:1003E000008022454C040020F6285C8FC2F5A73F10
:1003F0004C0600206164647C7375623A313B73770C
:10040000697463683A313B776176655F6D6F6465E7
:100410003A323B6F6E7C6F66663A31000D0A2D2DC5
:100420002D2D2D2D2D2D2D2D2D2D2D2D2D2D2D0029
:1004300050564446D1B9B5E7B1A1C4A400000000AC
:100440002D2D2D2D2D2D2D2D2D2D2D2D2D2D2D2DDC
:100450002D0D0A00D40A0020008054C5E40A0020B3
:1004600000D8824500105AC500F07E4508000020E3
:10047000704700BFFEE700BFFEE700BFFEE700BF1A
:10048000FEE7704770477047704770B5012004F071
:1004900035FD002854D0CE49488805F0C9F90646F4
:1004A000CC4905F065F80546CB4905F02FF8044620
:1004B00005F0E1F9C9490880C948007800283CD016
:1004C000C8480078401CC0B2C649087028280ADA1B
:1004D000BF480088282190FBF1F0C349096808440F
:1004E000C149086029E0BF480078282825D1BE48C6
:1004F000006840F6B831884209D90021BB4804F0B1
:10050000D1FB00220121B94804F04DF904E0012299
:100510001146B64804F047F9B54AB64B1B8832F885
:100520001310B14A128890B200231A4602F012FC4E
:100530000020AD490860AB490870012004F0F2FCCE
:1005400070BD10B50121A94804F0DBFB00287AD06A
:10055000A94801780078401CA74A1070012911D1E0
:10056000A4480088FC2803DD0020A249088006E09A
:10057000A0480088A149098808449E4908800020B5
:100580009D4908709E48007830B1012818D0022893
:100590002AD003284DD139E09A489649098830F885
:1005A00011109948007800EBC00202EB001001EB3B
:1005B000800081B28E488F4A128820F8121038E0ED
:1005C00092488C49098830F811108F48007800EB68
:1005D000C00202EB001001EB800081B28448854A22
:1005E000128820F8121024E089488249098830F8DE
:1005F00011008549097801EB810100EB011081B2FE
:100600007B487C4A128820F8121012E08148794910
:10061000098830F811107C48007800EBC00202EB2A
:10062000001001EB80007249724A128821F8120012
:1006300000BF00BF71480088012805D0022807D0FC
:1006400003280DD108E029E05A207349087007E01B
:1006500082207149087003E0B4206F49087000BF20
:1006600000BF644800886C49097888420BDA002092
:100670006A4908605E485F4A128830F812105B4889
:1006800004F010FB06E00021584804F00BFB0120A9
:10069000624908600121554804F044FB10BD10B5C3
:1006A00001215F4804F02DFB48B35E480068401C00
:1006B0005C490860B0F5FA7F07D35B480068401CCE
:1006C0005949086000205749086057480068574951
:1006D0000978884202D100205549087053480078B3
:1006E00051490968B1EB400F05D10120504908700C
:1006F00000204D4908600121494804F013FB10BD5A
:100700002DE9F041082004F0AFFC002848D00A2071
:1007100002F0C1F94748006800283ED1012046494F
:1007200008704649881C01F0CEFE4449091FB1F902
:10073000140005F074F806464049091F888805F042
:1007400077F807463D48001FC168384604F0DEFED2
:100750000546314604F082FE044605F0A5F8374907
:10076000091F8880B1F9160005F059F8064633498B
:10077000091FC88805F05CF807463048001F01696A
:10078000384604F0C3FE0546314604F067FE0446D1
:1007900005F08AF82949091FC880082004F075FC73
:1007A000BDE8F08110B54FF4807004F05DFC68B1D5
:1007B0000A2002F070F91F481430006810B90120B7
:1007C0001F4908704FF4807004F05FFC10BD0000FA
:1007D0005408002000C05A450000C842080000200C
:1007E000300000201A000020040000200004004017
:1007F00084080020000000200D00002002000020DE
:10080000330000204C000020340000204C02002067
:100810004C0400204C0600200C0000208481214262
:1008200000080040100000201400002036000020C6
:100830000B0000200C01214218000020E80A0020D3
:10084000190000200CB50020019000906C48006851
:1008500040F480306A49086000BF6948006800F4CD
:10086000003000900198401C0190009818B9019840
:10087000B0F5A06FF1D16248006800F4003010B10B
:100880000120009001E0002000900098012843D151
:100890005C48006840F010005A490860084600684B
:1008A00020F0030008600846006840F0020008607D
:1008B00053484068524948600846406848600846C6
:1008C000406840F4806048600846406820F47C102E
:1008D00048600846406840F4E810486008460068F0
:1008E00040F08070086000BF4548006800F000706C
:1008F0000028F9D04248406820F003004049486091
:100900000846406840F00200486000BF3C4840682C
:1009100000F00C000828F9D10CBD10B5FFF792FFCC
:1009200010BD10B53648006840F001003449086039
:100930000846406834490840314948600846006824
:10094000324908402E4908600846006820F480209B
:1009500008600846406820F4FE0048604FF41F001D
:100960008860FFF7DAFF4FF000602949086010BD8A
:1009700010B5002100200022214B5B6803F00C0120
:1009800021B1042906D0082928D107E0214B224CA7
:10099000236027E01F4B204C236023E0184B5B684B
:1009A00003F47010164B5B6803F48032022303EBF0
:1009B000904022B9194B4343174C23600DE0104B74
:1009C0005B6803F4003323B1144B4343124C2360A0
:1009D00003E0104B4343104C236003E00D4B0E4CDF
:1009E000236000BF00BF064B5B68C3F303130C4CCE
:1009F000E15C094B1B68CB40074C236010BD000035
:100A000000100240002002400000FFF8FFFFF6FE49
:100A100008ED00E000127A001C00002000093D00F3
:100A2000200000200648804706480047FEE7FEE712
:100A3000FEE7FEE7FEE7FEE7FEE7FEE7FEE7FEE78E
:100A400023090008ED0000080EB500201021252222
:100A50004FF6FF73CDE9002102904FF4FC6201468E
:100A60004FF4967000F0E1FC01202021FDA24FF62A
:100A7000FF73CDE9002102904FF4FC624021002079
:100A800001F046F801201821FAA24FF6FF73CDE9D4
:100A90000021029048F21F426421962000F0B4FF2A
:100AA000F74A3C210A2001F055F80EBD0EB5F54A73
:100AB000AA21142001F04EF8F34AAA21642001F083
:100AC00049F8F24AAA21B42001F044F8F04AAA21D8
:100AD0004FF4827001F03EF801201021EDA24FF694
:100AE000FF73CDE9002102904FF478422821084697
:100AF00000F08AFF01201021E8A24FF6FF73CDE934
:100B0000002102904FF4FC622821642000F07CFF59
:100B10008C234FF496723C21AA2000F0C8FB0120E0
:100B20001021E0A24FF6FF73CDE9002102904FF4AF
:100B300078424621B42000F067FF01201021DBA29B
:100B40004FF6FF73CDE9002102904FF4FC6246217D
:100B50004FF4827000F058FF01201021D5A24FF60B
:100B6000FF73CDE9002102904FF4FC626E21B420A6
:100B700000F04AFF01201021D0A24FF6FF73CDE90B
:100B8000002102904FF4FC626E214FF4827000F05D
:100B90003BFF0020102125224FF6FF73CDE90021F5
:100BA00002904FF4FC6201464FF4967000F03DFC59
:100BB0000EBD00B5C7B0FC2108A804F00EFCC1486A
:100BC0000078012803D0C048007801287ED1BF48B2
:100BD0000078A8B9BB480078012811D1BC48C28868
:100BE0008188BCA005F080F80120B84908704FF654
:100BF000FF7001F048FAFFF759FF0020BA4908706A
:100C0000B24800780128E1D1B148808814280BDD72
:100C1000AF4880883C2807DAAD48C088AA2803DDA1
:100C2000AB48C088D22803DBB0480078312815D102
:100C3000AF48007848B9AF48007804280EDAAD48CC
:100C40000078401CAB49087008E0AB4800880328D6
:100C500004DAA9480088401CA74908809C4880887D
:100C600064280BDD9A4880888C2807DA9848C08869
:100C7000AA2803DD9648C088D22803DB9B48407829
:100C8000312815D19A48007848B99A480078002848
:100C90000EDD98480078401E9649087008E0964896
:100CA0000088012804DD94480088401E924908808D
:100CB00087488088B4280DDD85488088DC2809DADB
:100CC0008348C088AA2805DD814800E0C0E1C088CB
:100CD000D22803DB85488078312845D184480078C4
:100CE00001281ED110216BA24FF6FF73CDE9002120
:100CF00002904FF478422821084600F085FE01203A
:100D0000102166A24FF6FF73CDE9002102904FF447
:100D1000FC622821642000F077FE002074490870EE
:100D200022E0012010215DA24FF6FF73CDE90021E2
:100D300002904FF478422821642000F065FE0120E3
:100D4000102154A24FF6FF73CDE9002102904FF419
:100D5000FC622821084600F057FE00206449087014
:100D600008460078401C087059488088B0F5827F9A
:100D70000CDD57488088B0F5967F07DA5448C08864
:100D8000AA2803DD5248C088D22803DB5748C07820
:100D9000312866D159480078032803D100205749EB
:100DA000087004E055480078401C544908705348C6
:100DB000007830B1012822D002283ED003281DD16E
:100DC000A9E00120102137A24FF6FF73CDE90021E1
:100DD00002904FF478424621B42000F015FE012025
:100DE000102136A24FF6FF73CDE9002102904FF497
:100DF000FC626E214FF4827000F006FEABE0012031
:100E000010212AA24FF6FF73CDE9002102904FF482
:100E1000784246214FF4827000F0F6FD0120102147
:100E200020A24FF6FF73CDE9002102904FF4FC623F
:100E30004621B42000F0E8FD8DE0012010211DA224
:100E40004FF6FF73CDE9002102904FF478426E21F6
:100E5000B42000F0D9FD0120102114A24FF6FF7339
:100E60004EE079E0C9CFBAA3CAA6B7B6B4F3D1A70A
:100E700000000000BEABBFD8CAB5D1E9CAD200009D
:100E8000B868000838750008B8810008388E000876
:100E9000B89A0008C7BFB6C800000000C6B5C2CAED
:100EA00000000000CEFCC8E900000000BFAAC4CCCE
:100EB00000000000B4DFC8E900000000B0B4C4A620
:100EC000000000001800002062080020320000200E
:100ED000E40A00200D0AD7F8B1EA783A25642CD745
:100EE000F8B1EA793A2564001900002037000020A3
:100EF00031000020340000200200002033000020D8
:100F0000CDE9002102904FF4FC6246214FF482703B
:100F100000F07AFD1FE001201021AFF260024FF6D1
:100F2000FF73CDE9002102904FF478426E214FF417
:100F3000827000F069FD01201021AFF288024FF6A7
:100F4000FF73CDE9002102904FF4FC626E21B420C2
:100F500000F05AFD00BF00BF5E48007931282AD159
:100F60005D480078E8B100205C490870302001231A
:100F7000009008460278521C5021282000F061FBA6
:100F80000021574803F08EFE0021554803F08CFEE7
:100F900000205449086000220121514803F003FC5D
:100FA00004E0012211464E4803F0FDFB4A48007858
:100FB000C043494908704C48007801282ED14B485D
:100FC0004B494C4A4C4B1B88CDE90332CDE9051007
:100FD0004A4801784A48007808B94AA000E04CA085
:100FE0004E4A1288CDE9002002913B480078FF2844
:100FF00001D14BA000E04CA00246384803784C4990
:1010000008A804F081FE08A94AA004F06DFEFC21A6
:1010100008A804F0E2F900203349087030200123C9
:1010200000902E480278521C5021282000F009FB25
:10103000302001230090394802885021642000F0BC
:1010400000FB3D480078012802D100203A49087091
:10105000002047B000BD08B538480078012836D1D7
:101060003748007801282FD11B480078F8B10020BC
:101070001A49087030200123009008460278521C5B
:101080005021282000F0DDFA0021154803F00AFE67
:101090000021134803F008FE002012490860294986
:1010A0000870002201210E4803F07DFB07E00120BB
:1010B0002449087001221146094803F074FB0648D0
:1010C0000078C0430449087000201C4908700020C3
:1010D00008BD00003700002035000020340000204B
:1010E0000004004084812142620800204600002064
:1010F000410000203C0000200800002033000020B8
:1011000031000020537472656E677468000000003F
:101110004672657175656E637900000002000020FB
:10112000547275650000000046616C736500000034
:10113000F0B50008257300001800002019000020F9
:10114000320000203000002070B505460E461446DF
:101150003146284600F006FF204600F0E6FE70BD4E
:101160002DE9F84F06460F4614461D46DDF8288047
:10117000A01B401C1FFA80FBE81B401C80B20090A3
:10118000681E83B2601E82B23946304600F053FFBB
:101190004FF40060FE4908604010091F08604FF0DE
:1011A000000917E04FF0000A0DE04FEA2821F94846
:1011B00000F016FE08F0FF01F64800F011FE0AF1FB
:1011C00001001FFA80FA00988245EEDB09F1010068
:1011D0001FFA80F9D945E5DB4FF40060EC49091F9F
:1011E0000860ED484088401E83B2EB480088401EEE
:1011F00082B20021084600F01EFFBDE8F88F2DE9FD
:10120000FF4F85B081468A460020049003900798DE
:10121000A0EB09050898A0EB0A06CDF80890CDF8D8
:1012200004A0002D01DD012705E00DB9002702E033
:101230004FF0FF376D42002E02DD4FF0010806E04F
:1012400016B94FF0000802E04FF0FF387642B54281
:1012500001DD2C4600E034464FF0000B21E0019AFE
:1012600091B2029A90B200F097FE0498284404903C
:101270000398304403900498A04205DD0498001BB5
:1012800004900298384402900398A04205DD039828
:10129000001B03900198404401900BF101001FFADC
:1012A00080FB601C8345DADD09B0BDE8F08F2DE9D5
:1012B000F04104460D4616461F462B463246294647
:1012C0002046FFF79CFF3B46224629462046FFF773
:1012D00096FF3B46324639462046FFF790FF3B4695
:1012E000324629463046FFF78AFFBDE8F081F8B55F
:1012F00004460D4616461F46A84800883B4632461F
:10130000294600902046FFF72BFFF8BD2DE9F0415C
:1013100004460D4616461F46DDF81880EA1991B2BC
:10132000A21990B24246FFF70FFFEA1991B2A21B31
:1013300090B24246FFF708FFEA1B91B2A21990B2A1
:101340004246FFF701FFEA1B91B2A21B90B2424650
:10135000FFF7FAFEAA1991B2E21990B24246FFF7DE
:10136000F3FEAA1991B2E21B90B24246FFF7ECFEDF
:10137000AA1B91B2E21990B24246FFF7E5FEAA1B02
:1013800091B2E21B90B24246FFF7DEFEBDE8F0816B
:101390002DE9FF4F81B0824617469846DDF838B0F8
:1013A000002445464FEA4800C0F10306BBF1000F98
:1013B0001FD01BE0A14608E04B462246009750464E
:1013C0000299FFF7A3FF09F10109A945F4DD002EF9
:1013D00004DA042000FB0460861D06E0601B042183
:1013E00001FB006000F10A066D1E641CAC42E1DDE9
:1013F00018E015E02B462246009750460299FFF769
:1014000085FF002E04DA042000FB0460861D06E040
:10141000601B042101FB006000F10A066D1E641CC4
:10142000AC42E7DD05B0BDE8F08F2DE9FF4F83B09A
:1014300081468A469346DDE9106558480088019048
:10144000302D03D1A6F13000C6B202E0A6F1200093
:10145000C6B205EBD57009EB6000401E82B20AEB04
:101460000500401E83B251464846009500F0E3FD5A
:10147000129800285CD1302D2FD100242AE00020C2
:10148000029022E006EBC600454901EB001104EB97
:1014900044020298104411F8008000270FE008F081
:1014A000800018B1584600F040FD02E0069800F0B8
:1014B0003CFD4FEA48604FEA1068781CC7B2082F1D
:1014C000EDDB0298401CC0B2029002980328D9DBE1
:1014D000601CC4B2AC42D2DB58E0002425E00C2DE5
:1014E00007D106EB46002F4901EB800010F804807D
:1014F00004E02D4800EB061010F8048000270DE0F2
:1015000008F0010018B1584600F00FFD02E00698FF
:1015100000F00BFD4FEA6808781CC7B205EBD571E7
:10152000B7EB610FECDB601CC4B2AC42D7DB2DE043
:10153000002429E00C2D07D106EB4600194901EBE8
:10154000800010F8048004E0174800EB061010F843
:101550000480002711E01148A0F800B008F0010055
:1015600038B10AEB040291B209EB070290B200F025
:1015700013FD4FEA6808781CC7B205EBD571B7EBCD
:10158000610FE8DB601CC4B2AC42D3DB03490DE061
:10159000140C014000380040D40A00204C08002000
:1015A000E4A8000838A7000844A7000801980880AC
:1015B000FE484088401E83B2FC480088401E82B22C
:1015C0000021084600F037FD07B0BDE8F08F2DE997
:1015D000FE4306460F4615461C46DDF828801DE0F2
:1015E000F2480088401EB04204DBF0484088401EAC
:1015F000B84201DABDE8FE8320788DE82101EC488D
:101600000388EC48028839463046FFF70EFF28462B
:1016100005EBD07106EB61018EB2641C20787E2848
:1016200002DC20782028DBDA00BFE3E710B50246B1
:10163000012000E050430B1EA1F10104E1B2F9D1F9
:1016400010BD2DE9FF4F83B0074691461E46109C02
:101650004FF0000A002543E0701B401EC1B20A2073
:10166000FFF7E4FFB9FBF0F00A21B0FBF1F201FB58
:101670001208BAF1000F1BD1701EA84218DDB8F194
:10168000000F13D100202021A346CDE900140290C1
:1016900004EBDB71491001FB057188B2C4490B886A
:1016A000C4490A880499FFF7C0FE17E04FF0010A09
:1016B000002108F13000C0B2A346CDE901410090FD
:1016C00004EBDB71491001FB057188B2B8490B8846
:1016D000B8490A880499FFF7A8FE00BF681CC5B284
:1016E000B542B9DB07B0BDE8F08F2DE9FC5F0546D8
:1016F000884691469A46DDF830B000950B2001905F
:1017000000245FE004EB0410AB4911F810009BF8D3
:101710000010884253D104EB0410A74901EB4000AC
:1017200040789BF80110884249D108F10F0083B23C
:1017300005F10F0082B24146284600F07CFC0026ED
:101740003BE0002734E00D9890B904EB04109A496F
:1017500001EB4000801C805D80213941084018B1B8
:10176000484600F0E2FB21E0504600F0DEFB1DE0C1
:101770009048A0F8009004EB04108F4901EB400062
:10178000801C805D80213941084018B141462846BF
:1017900000F002FC681C85B20098281A102805D1B8
:1017A000009D08F101001FFA80F803E0781CC7B221
:1017B000082FC8DB00BF701CC6B2202EC1DB00BFE3
:1017C000601C84B2019884429CDB78484088401EAB
:1017D00083B276480088401E82B20021084600F09D
:1017E0002AFCBDE8FC9F2DE9FC5F05468846914632
:1017F0009A46DDF830B0009505200190002467E09E
:1018000004EB840000EB44106C4911F810009BF8C5
:101810000010884259D104EB840000EB4410674962
:1018200001EB400040789BF8011088424DD108F14F
:10183000170083B205F1170082B24146284600F036
:10184000FAFB00263FE0002738E00D98A0B904EB32
:10185000840000EB4410594901EB4000801C805D7E
:1018600080213941084018B1484600F05EFB23E072
:10187000504600F05AFB1FE04E48A0F8009004EBE1
:10188000840000EB44104D4901EB4000801C805D5A
:1018900080213941084018B14146284600F07CFBC0
:1018A000681C85B20098281A182805D1009D08F1F7
:1018B00001001FFA80F803E0781CC7B2082FC4DBD0
:1018C00000BF701CC6B2482EBDDB00BF601C84B2D6
:1018D0000198844294DB35484088401E83B23348E7
:1018E0000088401E82B20021084600F0A4FBBDE83B
:1018F000FC9F2DE9FC5F0546884691469A46DDF837
:1019000030B000950620019000246CE004EB8410B8
:101910002B4911F810009BF80010884260D104EBAD
:101920008410274901EB400040789BF80110884261
:1019300056D108F11F0083B205F11F0082B2414663
:10194000284600F078FB002648E0002741E00D988B
:1019500090B904EB84101A4901EB4000801C805DB3
:1019600080213941084018B1484600F0DEFA2EE0E7
:10197000504600F0DAFA2AE00E48A0F8009004EB96
:1019800084100F4901EB4000801C805D80213941AB
:10199000084018B14146284600F0FEFA681C85B29E
:1019A0000098281A202812D1009D0BE0D40A0020AC
:1019B0004E0800204C08002084AE0008FAAF000852
:1019C0006CB1000808F101001FFA80F803E0781CF0
:1019D000C7B2082FBBDB00BF701CC6B2802EB4DBC1
:1019E00000BF601C84B2019884428FDB704840883D
:1019F000401E83B26E480088401E82B20021084615
:101A000000F019FBBDE8FC9F2DE9FF4F83B00646AF
:101A100088469146DDE91147109DB2464FF0000B14
:101A200071E0BBF1000F40D104EBD471604A128821
:101A3000A2EB6101B14204DB5D494988091B4145C4
:101A400002DA07B0BDE8F08F2878802802DD4FF079
:101A5000010B58E028780D2806D108EB04001FFA86
:101A600080F856466D1C1EE0102C0DDD10212878E4
:101A70008DE883004A4641463046069BFFF7D5FC79
:101A800006F1080086B20EE028788DE891004A46FB
:101A900041463046069BFFF7C8FC204604EBD07158
:101AA00006EB61018EB26D1C2DE041480088001BE1
:101AB000B04204DB3E484088001B404500DAC0E7E6
:101AC0004FF0000B202C08D1CDE900574A46414683
:101AD0003046069BFFF70DFF12E0182C08D1CDE928
:101AE00000574A4641463046069BFFF77CFE07E01A
:101AF000CDE900574A4641463046069BFFF7F5FDC3
:101B0000AD1C301986B2287800288AD100BF98E72A
:101B10002DE9FF4F83B004460F469046DDE9119A48
:101B2000109D284603F070FC86B221490988A1EB7C
:101B3000061000EBD071C1F34F0B04EB0B0188B220
:101B40008DE8200642463946069BFFF75DFF07B049
:101B5000BDE8F08F2DE9F04706460F46154607F120
:101B6000270083B206F1270082B23946304600F0E2
:101B700062FA00240AE015F8149005EB440090F88E
:101B8000018049EA082000F0D0F9641CB4F5C86F60
:101B9000F1DB07484088401E83B205480088401E9C
:101BA00082B20021084600F046FABDE8F087000046
:101BB000D40A00200EB50121052001F041FF0820C4
:101BC000ADF8080048208DF80B0002A9144801F078
:101BD0007BFC4FF48070ADF8080048208DF80B00B6
:101BE00002A90F4801F070FC0321002001F082FDE2
:101BF0000820009000208DF804000C208DF80500CE
:101C0000684603F0CBF90821002001F073FD4FF482
:101C100080700090684603F0C1F900F0B1FD0EBD80
:101C20000008014008B50121082001F009FF022049
:101C3000ADF8000010208DF8030003208DF802009D
:101C40006946034801F040FC00200249086008BDD5
:101C5000000C0140848121423EB505460C4601211D
:101C6000042001F0FAFEADF80450ADF80040002069
:101C7000ADF80600ADF802006946464802F01CFACD
:101C80000121444803F03AF800220121414802F0C2
:101C90008AFD00213F4802F06BFD00F0A8FD3EBD2B
:101CA00030B587B005460C460121022001F0D5FE73
:101CB0000121394801F0D9FC4FF48050ADF81400EF
:101CC0004720ADF810000020ADF81600ADF8120066
:101CD00004A9324802F0F0F96020ADF800000120BC
:101CE000ADF802000020ADF80800ADF806506946D6
:101CF0002A4802F060FA0821284802F072FEADF886
:101D000006406946254802F0A3FA0821234802F05C
:101D100075FE0121214802F0F1FF002201211F4838
:101D200002F041FD00F063FD01211C4802F020FD9E
:101D300007B030BD08B50121092001F081FE202047
:101D4000ADF8000018208DF8030003208DF8020084
:101D50006946134801F0B8FB0120ADF800001820D7
:101D60008DF8030003208DF8020069460C4801F04D
:101D7000ABFB08BD70B504460D46FFF7DBFF2946F7
:101D80002046FFF78DFF47214FF4C870FFF764FF2F
:101D900070BD00000008004000081A000004004068
:101DA000000C01400021082117E000F0800222B160
:101DB0004FF40042FE4B1A6004E04FF40042FC4B2B
:101DC0001B1D1A604FF40052F94B1B1D1A601B1F9C
:101DD0001A604206100E4A1ED1B20029E5DC704797
:101DE000024600BF108900F002000028FAD091815D
:101DF00000BF108900F001000028FAD09089C0B21D
:101E0000704702884FF6C7731A400280012902D139
:101E10000288028003E0028842F0200202800288E9
:101E200042F040020280704700B587B001210920CE
:101E300001F006FE4FF42040ADF8040003208DF8B9
:101E4000060018208DF8070001A9D948103801F0C4
:101E50003BFB4FF48040ADF8040048208DF80700AC
:101E600003208DF8060001A9D148103801F02CFBA1
:101E70004FF4F050ADF8040003208DF80600102058
:101E80008DF8070001A9CA48103801F01DFB012197
:101E9000880301F0E2FD0020ADF808004FF48270E5
:101EA000ADF80A000020ADF80C000220ADF80E00DD
:101EB0000120ADF810004002ADF812000020ADF88E
:101EC0001400ADF816000720ADF8180002A9B948B3
:101ED00003F00AF90121B74803F0ABF907B000BDE0
:101EE00000B503464FF40060B149091D0860401079
:101EF00008601946AF48FFF773FF4FF40060AC4924
:101F0000086000BD00B503464FF40060A849091DF4
:101F100008604010091F08601946A648FFF760FFD7
:101F20004FF40060A249086000BD00B503464FF4BD
:101F300000609F49091D08604010091F08601912C0
:101F40009C48FFF74DFFD9B29A48FFF749FF4FF47D
:101F500000609749086000BD00B59749087AFFF70F
:101F6000BFFF00BD30B504460D469349887AFFF7A0
:101F7000B7FF2012FFF7C6FFE0B2FFF7C3FF8E499D
:101F8000087BFFF7ADFF2812FFF7BCFFE8B2FFF7B1
:101F9000B9FFFFF7E1FF30BD30B504460D462946D5
:101FA0002046FFF7DFFF4FF400608149091D0860FC
:101FB0004010091F08608148008801127D48FFF722
:101FC0000FFF7E4801787B48FFF70AFF4FF400605F
:101FD0007749086030BD30B505460C462846FFF706
:101FE0007FFFE0B2FFF78EFF30BD08B5012108206A
:101FF00001F026FD4FF47E40ADF8000003208DF87F
:10200000020010208DF8030069466948103801F07D
:102010005BFA08BD10B54FF480506549091D086092
:10202000642000F038FD4FF4805061490860322090
:1020300000F031FD10BDF0B504460D4616461F46B2
:102040005D49887AFFF74CFF2012FFF75BFFE0B293
:10205000FFF758FF3012FFF755FFF0B2FFF752FFBE
:102060005549087BFFF73CFF2812FFF74BFFE8B20A
:10207000FFF748FF3812FFF745FFF8B2FFF742FFBE
:10208000FFF76AFFF0BD30B5044600254A48408896
:10209000401E83B248480088401E82B20021084694
:1020A000FFF7C9FF4FF400604149091D0860401067
:1020B000091F086000BF08E021123E48FFF790FEAC
:1020C000E1B23C48FFF78CFE6D1C3B4800883A4962
:1020D00049884843A842EFD84FF40060344908606B
:1020E00030BD00B52C2034490881012088714FF49F
:1020F000A0700880F02048802A2048812B20888109
:102100006C213620FFF767FF00BD10B500F086FC9C
:10211000FFF78AFEFFF77EFFCF20FFF7E1FE0020EA
:10212000FFF7F0FEC120FFF7EDFE3020FFF7EAFEDB
:10213000ED20FFF7D5FE6420FFF7E4FE0320FFF754
:10214000E1FE1220FFF7DEFE8120FFF7DBFEE82034
:10215000FFF7C6FE8520FFF7D5FE1020FFF7D2FE61
:102160007A20FFF7CFFECB20FFF7BAFE3920FFF72A
:10217000C9FE2C20FFF7C6FE0020FFF7C3FE342067
:10218000FFF7C0FE0220FFF7BDFEF720FFF7A8FE15
:102190002020FFF7B7FEEA20FFF7A2FE0020FFF79E
:1021A000B1FE0020FFF7AEFEC020FFF799FE07E06A
:1021B000100C014000380040D40A00204C080020D8
:1021C0001B20FFF79FFEC120FFF78AFE0120FFF7CB
:1021D00099FEC520FFF784FE3020FFF793FE3020E4
:1021E000FFF790FEC720FFF77BFEB720FFF78AFEC0
:1021F0003620FFF775FE4820FFF784FE3A20FFF7F0
:102200006FFE5520FFF77EFEB120FFF769FE00202C
:10221000FFF778FE1A20FFF775FEB620FFF760FE85
:102220000A20FFF76FFEA220FFF76CFEF220FFF7F7
:1022300057FE0020FFF766FE2620FFF751FE012023
:10224000FFF760FEE020FFF74BFE0F20FFF75AFE7E
:102250002A20FFF757FE2820FFF754FE0820FFF73B
:1022600051FE0E20FFF74EFE0820FFF74BFE5420D4
:10227000FFF748FEA920FFF745FE4320FFF742FE87
:102280000A20FFF73FFE0F20FFF73CFE0020FFF77C
:1022900039FE0020FFF736FE0020FFF733FE002056
:1022A000FFF730FEE120FFF71BFE0020FFF72AFEBC
:1022B0001520FFF727FE1720FFF724FE0720FFF762
:1022C00021FE1120FFF71EFE0620FFF71BFE2B202C
:1022D000FFF718FE5620FFF715FE3C20FFF712FE11
:1022E0000520FFF70FFE1020FFF70CFE0F20FFF771
:1022F00009FE3F20FFF706FE3F20FFF703FE0F20F9
:10230000FFF700FE2B20FFF7EBFD0020FFF7FAFDA3
:102310000020FFF7F7FD0120FFF7F4FD3F20FFF756
:10232000F1FD2A20FFF7DCFD0020FFF7EBFD002088
:10233000FFF7E8FD0020FFF7E5FDEF20FFF7E2FDE6
:102340001120FFF7CDFD782000F0A5FB2920FFF735
:10235000C7FDFFF7C6FE4FF6FF70FFF794FE4FF480
:1023600000700149086010BD100C0140002100BF41
:1023700015E000F080021AB10122FA4B1A6002E067
:102380000022F84B1A604206100E0022F54B08336B
:102390001A600122F44BC3F89C214A1CD1B20829CF
:1023A000E7DB704770B50646002500240020ED49A4
:1023B00008310860EC49C1F89401EA49091D086038
:1023C0003046FFF7D3FF062000F041FB0020E6492E
:1023D000C1F89C01012000F03AFB0120E1490831DD
:1023E00008600020E049C1F89C0100BF13E04FF6EF
:1023F000FF7000EA44040020DA4908310860012037
:10240000D949C1F89C01D7488438006808B1601CDC
:1024100084B2681CC5B2102DE9DB24110120D1491A
:10242000091D0860204670BD2DE9FE438046002747
:10243000002406E04046FFF7B5FF2DF81400601CAD
:1024400084B2052CF6DB002416E0601C85B20FE098
:102450003DF814003DF81510884207DD3DF8146082
:102460003DF815002DF814002DF81560681C85B294
:10247000052DEDDB601C84B2042CE6DB0027012473
:1024800005E03DF81400384487B2601C84B2042C87
:10249000F7DB032097FBF0F086B23046BDE8FE8301
:1024A0002DE9F04104460D46B0480078FFF7BCFF27
:1024B0000646AF480078FFF7B7FF074626802F8013
:1024C0000120BDE8F0817FB504460D4602A903A8AE
:1024D000FFF7E6FF064616B9002004B070BD694656
:1024E00001A8FFF7DDFF06460EB90020F5E7BDF8AD
:1024F0000400BDF80C10884206DCBDF80C10BDF8D5
:102500000400323081420CDBBDF80C00BDF8041031
:10251000884236DCBDF80410BDF80C003230814230
:102520002FDABDF80000BDF80810884206DCBDF8BF
:102530000810BDF80000323081420CDBBDF8080005
:10254000BDF8001088421CDCBDF80010BDF8080082
:102550003230814215DABDF80C10BDF8042088181D
:1025600000EBD071C1F34F012180BDF80810BDF818
:102570000020881800EBD071C1F34F0129800120A1
:10258000ABE70020A9E7F8B504460D4616467948A2
:10259000068004F10D018AB2193988B22B4629460A
:1025A000FEF72DFE05F10D0083B2193881B22246E7
:1025B0002046FEF724FE6A1C91B2621C90B2FFF71F
:1025C000EBFC6A1C91B2621E90B2FFF7E5FC6A1E3A
:1025D00091B2621C90B2FFF7DFFC6A1E91B2621EDC
:1025E00090B2FFF7D9FC00200623009061480288D2
:1025F00029462046FEF7CCFEF8BD70B504460D46D0
:1026000016465C48068029462046FFF7C5FC611C3B
:1026100088B22946FFF7C0FC681C81B22046FFF74C
:10262000BBFC6A1C91B2621C90B2FFF7B5FC70BD96
:102630002DE9F04104464B4888380068002853D102
:1026400024B14D49881EFFF73EFF3CE04A49881EF1
:10265000FFF739FFB8B34849891FB1F9140003F0F7
:10266000DEF807464449891F888803F0E1F8804670
:102670004148801FC168404602F048FF064639467F
:1026800002F0ECFE054603F00FF93B49891F8880F4
:10269000B1F9160003F0C3F807463749891FC88807
:1026A00003F0C6F880463448801F0169404602F0B6
:1026B0002DFF0646394602F0D1FE054603F0F4F838
:1026C0002D49891FC8802C48801F007A00F08000A7
:1026D00010BBC0202849891F0872084680880880DE
:1026E0000846C088488017E02348801F007A00F021
:1026F000800040B12048801F007A20F080001E49F1
:10270000891F087208E000201B49891F0880488043
:102710004FF6FF708880C8801748801F007A00F04D
:102720008000BDE8F08108B50121052001F088F99D
:10273000E020ADF8000010208DF8030003208DF894
:10274000020069460D4800F0BFFE1820ADF80000F9
:1027500048208DF803006946084800F0B5FE0120C6
:1027600008BD0000940121420000214252080020CF
:10277000530800204C080020EA0A0020000801400D
:1027800008B54FF4C06000F0A9FB09208DF80000E7
:1027900000208DF801008DF8020001208DF8030063
:1027A000684600F0A0FB17208DF8000000208DF88F
:1027B000010001208DF802008DF80300684600F04A
:1027C00092FB08BD08B54FF4C06000F087FB0B20FA
:1027D0008DF8000001208DF8010006208DF8020020
:1027E00001208DF80300684600F07DFB08BD08B5A8
:1027F0004FF4C06000F072FB1D208DF80000002037
:102800008DF8010004208DF8020001208DF80300EE
:10281000684600F068FB1E208DF8000000208DF84F
:10282000010005208DF8020001208DF803006846A4
:1028300000F059FB08BD08B54FF4C06000F04EFB36
:1028400026208DF8000001208DF8010007208DF86A
:10285000020001208DF80300684600F044FB08BD2B
:1028600000B587B001214FF4017001F0E9F80620AE
:10287000ADF8040000208DF8070001A93B4800F0E6
:1028800023FE3B4800F098FB0020029001208DF8C9
:102890000C008DF80D004FF460200490002005908E
:1028A00002208DF8180002A9314800F0ACFB4FF46B
:1028B000404001F029F80723012211462C4800F07E
:1028C0003AFC072302221146294800F034FC01217A
:1028D000274800F0CFFB0121254800F0C0FB244829
:1028E00000F0DFFB00BF224800F0E0FB0028FAD137
:1028F0001F4800F0E5FB00BF1D4800F0E6FB002884
:10290000FAD101211A4800F0EAFB07B000BD10B56A
:102910000446072301222146154800F00CFC012142
:10292000134800F0DCFB00BF0221114800F048FD15
:102930000028F9D00E4800F065FC10BD2DE9F041EB
:1029400007460C460025002608E03846FFF7DFFF63
:102950000544052000F09FF8701CC6B2A642F4DBC7
:10296000B5FBF4F080B2BDE8F08100000008014042
:102970000024014000B58BB00121084601F053F856
:10298000FFF720FF2148009021480190102002907D
:102990004FF4FA6003900020049005900690079091
:1029A00020200890C001099000200A90694619482B
:1029B00002F05EFA1748783802F0B8F9164800902D
:1029C0001348019000200290022003900020049000
:1029D00080200590400006908000079020200890FD
:1029E0000002099000200A9069460A48783802F0EF
:1029F0003FFA01210748783802F065FA01220221E6
:102A00000448783802F06BFA0BB000BD0444004073
:102A100054080020800002404C24014010B56FF0A3
:102A2000040000F0AAFA2E4800682E49B0FBF1F02D
:102A30002D4908700846007800EB4001C1EBC0103A
:102A40004FF6FF7101EAC0002849088010BD014619
:102A5000254A12784A434FF0E0235A6100229A61D6
:102A60001A46126942F001021A6100BF4FF0E022DB
:102A7000106900F001021AB100F48032002AF5D08A
:102A80004FF0E022126922F001024FF0E0231A61B8
:102A900000229A6170470146144A12884A434FF057
:102AA000E0235A6100229A611A46126942F001023B
:102AB0001A6100BF4FF0E022106900F001021AB164
:102AC00000F48032002AF5D04FF0E022126922F0A3
:102AD00001024FF0E0231A6100229A617047000062
:102AE0001C00002000127A00580800205A0800201C
:102AF00070B504460D46E1B2E04801F041F900BF6F
:102B00004021DE4801F0AAF90028F9D0204670BD26
:102B100000BFDA48008800F020000028F9D0D7482C
:102B2000001D0088C0F3080070472DE9F04F85B004
:102B30000546D3A70FF254380FF25C390FF2643A0E
:102B40000026B346DAA1284602F066FC044609E0F6
:102B50003046711CCEB24DF82040D5A1002002F0C5
:102B60005BFC0446002CF3D10522D248009902F008
:102B70003FFC0522D048019902F03AFC0522CF48DB
:102B8000029902F035FC0522CD48039902F030FC91
:102B9000002005B0BDE8F08F10B586B004460121D5
:102BA00044F2040000F04CFF4FF40070ADF8140044
:102BB00003208DF8160018208DF8170005A9C148CC
:102BC00000F082FC4FF48060ADF8140004208DF812
:102BD000170005A9BB4800F077FC25208DF8000000
:102BE00003208DF801008DF8020001208DF803000C
:102BF000684600F078F94FF4A06000F06FF9019496
:102C00000020ADF80800ADF80A00ADF80C00ADF8F2
:102C100010000C20ADF80E0001A9984800F0B7FF95
:102C2000012240F22551954801F049F801219348CD
:102C300001F039F806B010BD10B540F225518F48AB
:102C400001F022F900286FD08C4801F09DF8C4B241
:102C50009D48007820B1012833D0022863D14FE08D
:102C60009A48007820B101280ED0022827D117E019
:102C70007A2C03D101209549087004E00020934983
:102C80000870914908701AE0702C03D102208F4916
:102C9000087004E000208D4908708B4908700EE030
:102CA000662C06D1012088490870002087490870E9
:102CB00004E00020854908708349087000BF00BF08
:102CC00031E00D2C03D102207F49087017E08048C5
:102CD0008049098844547F480088401C7D49088009
:102CE00008460088B0F5C87F09DB084601887848A7
:102CF00002F073FB0020774908807349087012E0E6
:102D00000A2C05D17248FFF710FF012072490870A4
:102D1000704801886E4802F060FB00206D49088011
:102D20006949087000BF00BF10BD70B505460E466A
:102D300000240CE0295D514801F022F800BF402139
:102D40004E4801F08BF80128F9D1601CC4B2B4429E
:102D5000F0DB70BD2DE9F04788B005460E461746FA
:102D600098460024A246AA222146641C0DF80120A0
:102D70002146641C0DF8012002222146641C0DF836
:102D8000012000222146641C0DF801202846E91785
:102D900005EB1161C1F307232246641C0DF80230D4
:102DA000E91705EB11610912A5EB0121CBB222460F
:102DB000641C0DF802303046F11706EB1161C1F3C7
:102DC00007232246641C0DF80230F11706EB11614F
:102DD0000912A6EB0121CBB22146621CD4B20DF838
:102DE00001303846F91707EB1161C1F3072321467B
:102DF000621CD4B20DF80130F91707EB116109120A
:102E0000A7EB0121CBB22146621CD4B20DF80130F0
:102E100040464FEAE87108EB1161C1F307232146F0
:102E2000621CD4B20DF801304FEAE87108EB116171
:102E30000912A8EB0121CBB22146621CD4B20DF8D5
:102E40000130201FC0B28DF80300D14608E01DF804
:102E50000900504400F0FF0A09F1010000F0FF09E9
:102E6000A145F4DB2046611CCCB20DF800A0214640
:102E70006846FFF75AFF08B0BDE8F0870038014008
:102E8000226164647C73756222000000227377699A
:102E9000746368220000000022776176655F6D6FC1
:102EA00064652200226F6E7C6F666622000000005F
:102EB0002C000000370000203C00002041000020D2
:102EC00046000020000801405E0800205F08002046
:102ED000000B00205C0800206208002031490143FB
:102EE000314A1160704770B5002100230F22C47869
:102EF00004B32D4C246804F4E064C4F5E064210AB2
:102F0000C1F10403CA40447804FA03F18478144000
:102F100021430901254C0678A155047804F01F05CA
:102F20000124AC4005786D11AD0005F1E025C5F830
:102F3000004109E0047804F01F050124AC401C4D59
:102F40000678761145F8264070BD1A4A0A400243B9
:102F5000154B1B1F1A60704739B1134A121D1268B6
:102F60000243114B1B1D1A6006E00F4A121D126826
:102F700082430D4B1B1D1A607047042808D14FF087
:102F8000E021096941F004014FF0E022116107E0FE
:102F90004FF0E021096921F004014FF0E0221161B6
:102FA000704700000000FA050CED00E000E400E0CE
:102FB00080E100E080FFFF1F10B50446FA4884421C
:102FC00008D10121401500F055FD0021601500F0E9
:102FD00051FD17E0F548844208D10121001500F0A9
:102FE00049FD0021201500F045FD0BE0F04884422A
:102FF00008D10121C80300F03DFD00214FF400403D
:1030000000F038FD10BD30B50246002000235068A6
:10301000E84C20400D790C6844EA052420435060B8
:103020009068E54C2040D1E902542C434D7944EAA4
:10303000450420439060D06A20F470000C7C641E2C
:10304000E4B2234340EA0350D06230BD0021016066
:10305000017141718160C16001210174704721B12A
:10306000826842F00102826003E0826822F001027D
:103070008260704721B1826842F48072826003E00E
:10308000826822F480728260704710B50023CBB250
:103090001AB144681C43446002E044689C434460A5
:1030A00010BD816841F00801816070470146002031
:1030B0008A6802F008020AB1012000E0002070478F
:1030C000816841F0040181607047014600208A68F0
:1030D00002F004020AB1012000E00020704721B193
:1030E000826842F4A002826003E0826822F4A002B7
:1030F00082607047014600208A6802F480020AB1AB
:10310000012000E00020704710B50A46002100238E
:10311000416821F46041531E41EA4331416010BDD2
:1031200021B1426842F40062426003E0426822F446
:10313000006242607047F0B504460D460020002151
:10314000092D11DDE068A5F10A0606EB4607072602
:1031500006FA07F18843A5F10A0606EB460603FACC
:1031600006F10843E0600CE0206905EB45070726FF
:1031700006FA07F1884305EB450603FA06F1084312
:103180002061072A0FDA606B561E06EB86071F26A2
:1031900006FA07F18843561E06EB860605FA06F185
:1031A0000843606322E00D2A0FDA206BD61F06EB7E
:1031B00086071F2606FA07F18843D61F06EB860608
:1031C00005FA06F10843206310E0E06AA2F10D065B
:1031D00006EB86071F2606FA07F18843A2F10D06C3
:1031E00006EB860605FA06F10843E062F0BD21B160
:1031F000826842F48012826003E0826822F48012C6
:10320000826070470146C86C80B2704766484C3097
:103210000068704721B1426842F48062426003E076
:10322000426822F480624260704721B1426842F4F1
:103230008052426003E0426822F48052426070474C
:103240000A460021816821F4E04111438160704702
:1032500021B1826842F40042826003E0826822F475
:1032600000428260704721B1826842F4021282609B
:1032700003E0826822F40212826070470146002057
:103280008A6802F400120AB1012000E000207047B1
:10329000F0B504461546002000220026092911DD5C
:1032A000E068A1F10A0707EB470C072707FA0CF2C1
:1032B0009043A1F10A0707EB470703FA07F210430F
:1032C000E0600CE0206901EB410C072707FA0CF2E3
:1032D000904301EB410703FA07F210432061A06B12
:1032E000C0F30156EF1C06F1010CA7EB0C0707EB2E
:1032F000870C1F2707FA0CF29043EF1C06F1010C14
:10330000A7EB0C0707EB870701FA07F21043A0634E
:10331000F0BD10B50A4600210023816B21F4401155
:10332000531E41EA0351816310BD08B50023009389
:103330000090009B0B440093009B1A6008BD08B5E9
:10334000024600200090009201F12800009B1844E2
:1033500000900098006880B208BD0A4600214168CC
:10336000164B1940114341607047416282627047B9
:103370000A460021416821F01F0111434160704756
:1033800040B109490831096841F40001064A083290
:10339000116007E004490831096821F40001024A7C
:1033A00008321160704700000024014000280140ED
:1033B000003C0140FFFEF0FFFDF7F1FFFFFD3FFF86
:1033C0000246002013680B400BB1012000E00020F2
:1033D0007047CA430260704770B502460020002360
:1033E00000240B125568CEB205EA060415681D408C
:1033F00015B10CB1012000E0002070BD00220A12BE
:10340000D34303607047000010B50446CC488442A3
:1034100008D10121042000F02DFB0021042000F040
:1034200029FB46E0C748844208D10121082000F06A
:1034300021FB0021082000F01DFB3AE0C248844235
:1034400008D10121102000F015FB0021102000F010
:1034500011FB2EE0BD48844208D10121202000F05C
:1034600009FB0021202000F005FB22E0B84884423F
:1034700008D10121402000F0FDFA0021402000F099
:10348000F9FA16E0B348844208D10121802000F007
:10349000F1FA0021802000F0EDFA0AE0AE48844203
:1034A00007D10121801500F0E5FA0021A01500F0F8
:1034B000E1FA10BD10B50121084600F0DBFA002149
:1034C000012000F0D7FA10BD2DE9F0410246002599
:1034D0000026002000230024002791F803C00CF0F0
:1034E0000F0591F803C00CF0100CBCF1000F03D0D5
:1034F00091F802C04CEA050591F800C0BCF1000F3C
:1035000031D0146800202BE04FF0010C0CFA00F3CE
:10351000B1F800C00CEA03069E4220D183004FF0B0
:103520000F0C0CFA03F7BC4305FA03FC4CEA040445
:1035300091F803C0BCF1280F06D14FF0010C0CFA32
:1035400000FCC2F814C00AE091F803C0BCF1480FB7
:1035500005D14FF0010C0CFA00FCC2F810C0401C61
:103560000828D1D31460B1F800C0BCF1FF0F34DDDE
:10357000546800202EE000F1080C4FF0010808FA12
:103580000CF3B1F800C00CEA03069E4221D183007F
:103590004FF00F0C0CFA03F7BC4305FA03FC4CEA9E
:1035A000040491F803C0BCF1280F05D100F1080C08
:1035B00008FA0CF8C2F8148091F803C0BCF1480F67
:1035C00007D100F1080C4FF0010808FA0CF8C2F816
:1035D0001080401C0828CED35460BDE8F0814FF61F
:1035E000FF710180022181700421C1707047024681
:1035F000002093680B400BB1012000E000207047D1
:103600000146886880B2704702460020D3680B40AC
:103610000BB1012000E0002070470146C86880B26D
:10362000704701617047416170470AB1016100E074
:1036300041617047C16070474FF480320A43826134
:103640008161826182698269704702460020434B32
:1036500018684FF68073184040EA021008433F4B49
:10366000186070473E49C8617047F0B50A460023AC
:1036700000240021002500F00046B6F1004F02D1E1
:10368000364EF16901E0354E7168C0F3034583B2EF
:1036900000F44016B6F5401F08D121F070612F4E9E
:1036A000766826F070662D4F7E6012E000F480167A
:1036B000B6F5801F06D1032606FA05F4A14341F0B2
:1036C000706106E0460D360103FA06F6B14341F09B
:1036D000706122B1460D360103FA06F6314300F05F
:1036E0000046B6F1004F02D11C4EF16101E01B4EC5
:1036F0007160F0BD30B500228B071C0F0F2303FA59
:1037000004F2164B08338C1053F824309343134CB7
:1037100008348D1044F8253023468C1053F824309B
:103720008C07240F00FA04F423430C4C08348D104A
:1037300044F8253030BD0A49DC310860704700008C
:1037400000080140000C014000100140001401403D
:1037500000180140001C0140002001400000014011
:1037600000002042DF48006840F00100DD490860A9
:1037700008464068DC490840DA4948600846006865
:10378000DA490840D74908600846006820F48020DC
:1037900008600846406820F4FE0048604FF41F00AF
:1037A00088607047CF49096821F48031CD4A1160A3
:1037B0001146096821F480211160B0F5803F03D0E3
:1037C000B0F5802F0ED106E0C649096841F480317A
:1037D000C44A116007E0C349096841F4A021C14A05
:1037E000116000E000BF00BF704710B50146002225
:1037F000002300204A11012A02D1BA4C236806E0B6
:10380000022A02D1B74C236A01E0B64C636A01F088
:103810001F02012494401C400CB1012000E0002054
:1038200010BD38B5002000900024002500BF3120D5
:10383000FFF7DBFF05460098401C00900098B0F5AC
:10384000A06F01D0002DF2D03120FFF7CEFF08B1DC
:10385000012400E00024204638BD01460020A14A92
:10386000106820F0F80040EAC10010607047A049DD
:1038700008607047024600209A4B586820F47C107C
:1038800042EA01031843974B58607047984908660D
:10389000704701460020934A506820F00300084317
:1038A000506070478F48406800F00C007047014638
:1038B00000208C4A506820F0F000084350607047A8
:1038C00001460020874A506820F4E06008435060B9
:1038D000704701460020834A506820F4605040EA57
:1038E000C1005060704729B17E4A527A02437D4B35
:1038F0005A7204E07B4A527A82437A4B5A7270477A
:103900007B49D8310860704701460020754A5068ED
:1039100020F440400843506070470021714A203233
:103920001170704A82F82010012802D004280AD1B0
:1039300004E001216B4A2032117005E00521694A3B
:103940002032117000E000BF00BF70476949086075
:1039500070476449096A0143624A116270476549C8
:1039600044390860704730B500210022002400234C
:103970005C4D6D6805F00C0121B1042905D00829C2
:1039800023D105E05C4D056022E05B4D05601FE042
:10399000544D6D6805F47012524D6D6805F4803415
:1039A000022505EB92421CB9544D554305600BE0CE
:1039B0004C4D6D6805F400351DB1504D5543056003
:1039C00002E04D4D5543056002E04B4D056000BFE0
:1039D00000BF444D6D6805F0F0010909484D6B5C6E
:1039E0000568DD4045603F4D6D6805F4E061090AFA
:1039F000434D6B5C4568DD4085603A4D6D6805F46C
:103A00006051C90A3E4D6B5C4568DD40C560354D6F
:103A10006D6805F44041890B3A4D6B5CC568B5FB98
:103A2000F3F5056130BD29B12E4A526902432D4B91
:103A30005A6104E02B4A526982432A4B5A6170470B
:103A400029B1284A92690243264B9A6104E0254A2B
:103A500092698243234B9A61704729B1214AD26906
:103A60000243204BDA6104E01E4AD26982431D4BB7
:103A7000DA61704729B11B4AD2680243194BDA60F8
:103A800004E0184AD2688243164BDA60704729B1C5
:103A9000144A12690243134B1A6104E0114A126975
:103AA0008243104B1A6170471249403908607047D1
:103AB0000F49C86470470B49C87170470948406A8C
:103AC00040F0807007494862704701460020054A6F
:103AD00092680A400AB1012000E0002070470149C5
:103AE00088727047001002400000FFF8FFFFF6FEEA
:103AF000000042428004424200127A0000093D0068
:103B0000630800207308002010B50446FB48844277
:103B100009D101218803FFF7ADFF00214FF4804058
:103B2000FFF7A8FF32E0F648844209D1012148049A
:103B3000FFF7ADFF00214FF40030FFF7A8FF25E0AD
:103B4000F048844209D101218804FFF7A0FF002139
:103B50004FF48020FFF79BFF18E0EB48844209D127
:103B60000121C804FFF793FF00214FF40020FFF765
:103B70008EFF0BE0E548844208D101210805FFF7DC
:103B800086FF00214FF48010FFF781FF10BD2DE963
:103B9000F04786B005460E460024A24600BFA14667
:103BA0000027B08900B100BF2F462C8A4CF6FF7069
:103BB0000440F08804432C82AC894EF6F310044094
:103BC000B08831890843718908430443AC81AC8AC9
:103BD0004FF6FF400440B0890443AC8201A8FFF7D0
:103BE000C2FEC648874202D1DDF810A001E0DDF830
:103BF0000CA0A88900F4004040B10AEBCA0000EB19
:103C00000A1031684900B0FBF1F807E00AEBCA007E
:103C100000EB0A1031688900B0FBF1F86420B8FBB2
:103C2000F0F004012009642101FB1089A88900F447
:103C3000004040B1322000EBC900B0FBF1F000F0D1
:103C40000700044308E0322000EB09106421B0FBB8
:103C5000F1F000F00F0004432C8106B0BDE8F087BE
:103C60004FF41651016000218180C18001810C2137
:103C7000418100218181704710B502460020108AE1
:103C80004FF2FF0318400B884C8823438C88234352
:103C9000CC8823431843108210BD0021018041804D
:103CA0008180C180704721B1828942F400528281B3
:103CB00004E082894DF6FF731A4082817047F0B5A7
:103CC0000346002400260025002040F66A17B9426A
:103CD00000D100BF1846C1F3421401F01F060127AE
:103CE00007FA06F5012C01D10C3004E0022C01D1B9
:103CF000103000E014301AB107682F43076002E06B
:103D00000768AF430760F0BD1AB1838A0B43838213
:103D100002E0838A8B4383827047028A4FF6F073F6
:103D20001A400282028A0A430282704782894FF255
:103D3000FF731A40828182890A438281704721B1D0
:103D4000828942F00202828104E082894FF6FD738B
:103D50001A4082817047028A4FF6DF731A4002824E
:103D6000028A0A430282704721B1028A42F48042E9
:103D7000028204E0028A4BF6FF731A400282704707
:103D8000C1F308028280704701468888C0F30800AA
:103D90007047818941F0010181817047028BD2B265
:103DA0000283028B42EA012202837047028B02F4F3
:103DB0007F420283028B0A430283704721B1828AC9
:103DC00042F02002828204E0828A4FF6DF731A40BA
:103DD0008282704721B1828A42F01002828204E01E
:103DE000828A4FF6EF731A408282704721B1828A2D
:103DF00042F00802828204E0828A4FF6F7731A408A
:103E00008282704721B1828942F40042828103E0BC
:103E10008289C2F30E028281704721B1828A42F404
:103E20000062828204E0828A4FF2FF731A4082822B
:103E30007047828A4FF6FB731A408282828A0A4355
:103E40008282704721B1828A42F00202828204E0BB
:103E5000828A4FF6FD731A40828270470246002024
:103E6000B1F5007F00D100BF13880B400BB10120DA
:103E700000E00020704701F40072B2F5007F00D12D
:103E800000BFCA430280704770B502460024002379
:103E90000025002040F66A16B14200D100BFC1F3F0
:103EA000421501F01F03012606FA03F3012D02D18A
:103EB0009689334006E0022D02D1168A334001E094
:103EC000968A33400C12012606FA04F41688344010
:103ED00013B10CB1012000E0002070BD10B500222C
:103EE000002340F66A14A14200D100BF0A12012447
:103EF0009440A3B2DC43048010BD000000380140B0
:103F00000044004000480040004C00400050004089
:103F100010B50446FE48844208D10121C014FFF7C1
:103F2000A9FD0021E014FFF7A5FDC4E0B4F1804F26
:103F300008D101210846FFF7AAFD00210120FFF763
:103F4000A6FDB8E0F348844208D101210220FFF722
:103F50009EFD00210220FFF79AFDACE0EE4884426E
:103F600008D101210420FFF792FD00210420FFF772
:103F70008EFDA0E0E948844208D101210820FFF726
:103F800086FD00210820FFF782FD94E0E44884428A
:103F900008D101211020FFF77AFD00211020FFF742
:103FA00076FD88E0DF48844208D101212020FFF718
:103FB0006EFD00212020FFF76AFD7CE0DA48844294
:103FC00008D101214014FFF755FD00216014FFF7CF
:103FD00051FD70E0D548844209D10121C804FFF7A2
:103FE00049FD00214FF40020FFF744FD63E0D04875
:103FF000844209D101210805FFF73CFD00214FF45F
:104000008010FFF737FD56E0CA48844209D10121EC
:104010004805FFF72FFD00214FF40010FFF72AFDA0
:1040200049E0C548844208D101214020FFF72FFD17
:1040300000214020FFF72BFD3DE0C048844208D11D
:1040400001218020FFF723FD00218020FFF71FFDC5
:1040500031E0BB48844208D101218015FFF717FDEC
:104060000021A015FFF713FD25E0B648844209D1D1
:1040700001210804FFF7FEFC00214FF48030FFF718
:10408000F9FC18E0B048844209D101214804FFF747
:10409000F1FC00214FF40030FFF7ECFC0BE0AB48E3
:1040A000844208D101218804FFF7E4FC00214FF489
:1040B0008020FFF7DFFC10BD00220288944B98425D
:1040C0000ED0994B98420BD0B0F1804F08D0914B55
:1040D000984205D0904B984202D0904B984204D120
:1040E0004FF68F731A404B881A438D4B984207D076
:1040F0008C4B984204D04FF6FF431A40CB881A43AA
:1041000002808B8883850B880385814B98420BD076
:10411000854B984208D08B4B984205D08A4B9842E9
:1041200002D08A4B984201D10B7A03860123838205
:10413000704770B5002400220023058C4FF6FE76F0
:1041400035400584028C8388048B4FF68F752C4094
:10415000B51E2C400D882C43751E2A400D892A431C
:104160004D882A436A4DA8420BD06F4DA84208D013
:10417000744DA84205D0744DA84202D0734DA84298
:1041800013D14FF6F7752A404D892A434FF6FB7538
:104190002A408D882A434FF6FF652B404FF6FF5586
:1041A0002B408D892B43CD892B4383800483CD887D
:1041B0008586028470BD70B5002400220023058C22
:1041C0004FF6EF7635400584028C8388048B48F6E1
:1041D000FF752C404FF6FF452C400D884FF6FF76BB
:1041E00006EA05252C434FF6DF752A400D8906EABD
:1041F00005152A434D8806EA05152A43444DA84271
:1042000002D0494DA8421DD14FF67F752A404D89F5
:104210004FF6FF7606EA05152A434FF6BF752A408A
:104220008D8806EA05152A434FF6FF352B404FF2DD
:10423000FF752B408D8906EA85052B43CD8906EA5B
:1042400085052B4383800483CD880587028470BD58
:1042500070B5002400220023058C4FF6FF66354020
:104260000584028C8388848B4FF68F752C404FF623
:10427000FC752C400D882C434FF6FF552A400D89C4
:104280004FF6FF7606EA05252A434D8806EA0525FE
:104290002A431F4DA84202D0234DA8421DD14FF200
:1042A000FF752A404D894FF6FF7606EA05252A4319
:1042B0004FF6FF352A408D8806EA05252A434EF63B
:1042C000FF752B404DF6FF752B408D8906EA0515CD
:1042D0002B43CD8906EA05152B4383808483CD8843
:1042E0008587028470BD70B5002200230024058CF0
:1042F0004EF6FF7635400584038C8488828B48F621
:10430000FF752A404FF6FF452A400D8820E0000047
:10431000002C01400004004000080040000C004058
:10432000001000400014004000340140004C0140E7
:10433000005001400054014000180040001C0040A3
:10434000002000400040014000440140004801407E
:104350004FF6FF7606EA05252A434DF6FF752B40FA
:104360000D8906EA05352B434D8806EA05352B43B2
:10437000FA4DA84202D0FA4DA84208D14BF6FF757B
:104380002C408D894FF6FF7606EA85152C438480F4
:104390008283CD88A0F84050038470BD828B4FF299
:1043A000FF331A408283828B4FF6FF7303EA0123A7
:1043B0001A4382837047F0B50C461546002200214F
:1043C0000026078C4EF6FF7C07EA0C070784828BD9
:1043D000018C4FF6FF7707EA043640F6FF473A4074
:1043E0004FF6FF7707EA05273A434FF6FF7707EACC
:1043F00003373A43D94FB8420ED0D94FB8420BD009
:10440000B0F1804F08D0D74FB84205D0D64FB84250
:1044100002D0D64FB84206D14DF6FF77394046F468
:104420008057394305E047F6FF57394044F4805739
:10443000394382830184F0BD828B4FF6F3731A40B7
:104440008283828B0A4382837047F0B50C461546FF
:10445000002200210026078C4FF6FF6C07EA0C07AC
:104460000784828B018C4FF6FF7707EA04264FF60C
:104470000C773A404FF6FF7707EA03172F433A438A
:10448000B64FB8420ED0B64FB8420BD0B0F1804F05
:1044900008D0B44FB84205D0B34FB84202D0B34FA2
:1044A000B84206D14FF6FF57394046F4807739437A
:1044B00005E04FF2FF57394044F480773943828357
:1044C0000184F0BD028B4FF2FF331A400283028B4E
:1044D0004FF6FF7303EA01231A4302837047F0B5D6
:1044E0000C461546002200210026078C4FF6EF7C73
:1044F00007EA0C070784028B018C4FF6FF7707EA67
:10450000041640F6FF473A404FF6FF7707EA0337B5
:104510003A434FF6FF7707EA05273A438F4FB842F1
:104520000ED08F4FB8420BD0B0F1804F08D08D4FD6
:10453000B84205D08C4FB84202D08C4FB84206D159
:104540004FF6DF77394046F01007394305E04FF664
:104550005F77394044F01007394302830184F0BD8E
:10456000028B4FF6F3731A400283028B0A430283D5
:104570007047F0B50C46154600220021068C4FF618
:10458000FE773E400684028B018C4FF60C7632405B
:104590007E1C06EA03162E433243704EB0420ED004
:1045A0006F4EB0420BD0B0F1804F08D06D4EB0428C
:1045B00005D06D4EB04202D06C4EB04206D14FF6DF
:1045C000FD76314044F00106314305E04FF6F576C3
:1045D000314044F00106314302830184F0BD70B5DF
:1045E00005460C465D4885420ED05D4885420BD09D
:1045F000B5F1804F08D05B48854205D05A488542C6
:1046000002D05A48854200D100E000BF208850B94E
:104610002389A28861882846FFF7ABFFE1882846F6
:10462000FFF79EFF25E0208804280AD12389A2886D
:1046300061882846FFF753FFE1882846FFF742FFCD
:1046400017E0208808280AD12389A2886188284693
:10465000FFF7FBFEE1882846FFF7EEFE09E023891D
:10466000A28861882846FFF7A6FEE1882846FFF762
:1046700095FE70BD2DE9F04105460C460026012748
:10468000608808B9022600E00026A088012801D130
:10469000022700E001272088A0B92389A288618829
:1046A0002846FFF766FFE1882846FFF759FF238970
:1046B0003A4631462846FFF712FFE1882846FFF7C1
:1046C00001FF13E02389A28861882846FFF707FFCE
:1046D000E1882846FFF7F6FE23893A463146284608
:1046E000FFF747FFE1882846FFF73AFFBDE8F08172
:1046F0000A884B881A438B881A43CB881A430B8944
:104700001A434B891A438B891A43A0F844207047F7
:104710004FF6FF71818000210180C18041800172CC
:1047200070470021018041808180C18001814181E9
:104730008181C181704700210180418001218180F8
:104740000021C1800181704700210180418081806A
:10475000C18001814181818170470000002C0140AE
:10476000003401400004004000080040000C0040FC
:1047700021B1028842F00102028004E002884FF673
:10478000FE731A400280704731B1B0F8442042F401
:104790000042A0F8442005E0B0F84420C2F30E0225
:1047A000A0F8442070471AB183890B43838102E04B
:1047B00083898B43838170478182704741EA02037A
:1047C000A0F8483070471AB183890B43838102E017
:1047D00083898B438381704701894FF6F8721140BA
:1047E000018170470A46002101894FF68F731940F5
:1047F00011430181704730B504460D4629462046D5
:10480000FFF7F0FF208940F00700208130BD2DE93F
:10481000F04104460D4616461F46602D06D13B4624
:10482000012231462046FFF75AFE05E03B460122B1
:1048300031462046FFF79DFE29462046FFF7D2FF6E
:10484000208940F007002081BDE8F08130B50C469A
:1048500000210189C9B24FF6FF7505EA032515430A
:1048600025432943018130BD2DE9F04105460E461F
:1048700017469846002443463A4631462846FFF7F5
:10488000E5FF2C894FF6F870044044F007044FF61A
:104890008F70044044F070042C81BDE8F081F0B5C5
:1048A00004460D4616461F463B46324629462046DC
:1048B000FFF7CCFF208940F480402081F0BD0185C6
:1048C000828270470A46002101884FF68F73194093
:1048D000114301807047F0B50C4615461E46002175
:1048E000002200230189028B038C4FF6F8773940B0
:1048F00021434FF6FC473A4040F201173A434FF646
:10490000DD773B404FF6FF7707EA06172F433B431F
:10491000018102830384F0BD0A460021018B4FF61A
:104920008F7319401143018370470A460021018BA0
:1049300048F6FF7319404FF6FF7303EA0223194349
:10494000018370470A460021818B4FF68F7319400F
:104950001143818370470A460021818B48F6FF731B
:1049600019404FF6FF7303EA02231943818370470E
:1049700021B1028842F08002028004E002884FF6F2
:104980007F731A400280704721B1828842F004028E
:10499000828004E082884FF6FB731A408280704761
:1049A00021B1828842F00802828004E082884FF6BA
:1049B000F7731A408280704721B1828842F0010269
:1049C000828004E082884FF6FE731A40828070472E
:1049D0000A460021018B4FF6F773194011430183FA
:1049E00070470A460021018B4FF2FF7319404FF6C2
:1049F000FF7303EA02231943018370470A4600212B
:104A0000818B4FF6F77319401143818370470A4633
:104A10000021818B4FF2FF7319404FF6FF7303EAB9
:104A200002231943818370470A460021018B4FF608
:104A3000FB7319401143018370470A460021018B23
:104A40004FF6FF3319404FF6FF7303EA0223194371
:104A5000018370470A460021818B4FF6FB73194092
:104A60001143818370470A460021818B4FF6FF3343
:104A700019404FF6FF7303EA0223194381837047FD
:104A80000A460021018B4FF67F73194011430183C1
:104A900070470A460021018BC1F30E014FF6FF73E8
:104AA00003EA02231943018370470A460021818BE0
:104AB0004FF67F7319401143818370470A460021E6
:104AC000818BC1F30E014FF6FF7303EA02231943F2
:104AD000818370470A460021018C4FF6FD7319400F
:104AE0001143018470470A460021018C4FF6F77389
:104AF00019401143018470470A460021018C4FF68A
:104B0000DF7319404FF6FF7303EA02131943018460
:104B100070470A460021018C4FF67F7319404FF60B
:104B2000FF7303EA02131943018470470A46002108
:104B3000018C4FF6FF5319404FF6FF7303EA02232F
:104B40001943018470470A460021018C4FF2FF731C
:104B500019404FF6FF7303EA02231943018470479B
:104B60000A460021018C4DF6FF7319404FF6FF7382
:104B700003EA023319430184704730B5002301244E
:104B80008C40A3B2048C9C430484048C02FA01F58B
:104B9000ADB22C43048430BD30B5002304248C40D6
:104BA000A3B2048C9C430484048C02FA01F5ADB2D8
:104BB0002C43048430BD70B5034600200024184601
:104BC000183001258D40ACB21D8CA5431D8409B160
:104BD000082909D100EB6100056825F07005056022
:104BE0000568154305600EE00D1FC5F34E0528440A
:104BF000056825F4E045056005684FF6FF7606EA8E
:104C000002263543056070BD21B1028842F00202E0
:104C1000028004E002884FF6FD731A40028070475C
:104C200021B1028842F00402028004E002884FF6BB
:104C3000FB731A400280704721B1828842F08002E3
:104C4000828004E082884FF67F731A40828070472A
:104C500002884FF6F7731A40028002880A430280E6
:104C6000704782884FF68F731A40828082880A4389
:104C70008280704702894FF6F8731A4002810289D8
:104C80000A430281704702894FF67F731A400281FE
:104C900002890A4302817047818470478185704789
:104CA000818670470187704781877047A0F8401060
:104CB000704702884FF6FF431A40028002880A4379
:104CC000028070470146888E70470146088F704702
:104CD0000146888F70470146B1F840007047014691
:104CE000888C70470146088D704702460020138A61
:104CF0000B400BB1012000E000207047CA43028244
:104D0000704730B50246002000230024158A05EACA
:104D10000103958905EA010413B10CB1012000E0FB
:104D2000002030BDCA4302827047000001684FF680
:104D3000FE72114001600021016041608160C1602C
:104D40008D49884208D18C490839496841F00F01E2
:104D5000894A083A51608AE087491431884208D16B
:104D600085490839496841F0F001834A083A5160A1
:104D70007DE081492831884208D17F490839496856
:104D800041F470617C4A083A516070E07A493C31E4
:104D9000884208D178490839496841F47041764A17
:104DA000083A516063E074495031884208D1724931
:104DB0000839496841F470216F4A083A516056E059
:104DC0006D496431884208D16B490839496841F41A
:104DD0007001694A083A516049E067497831884270
:104DE00008D165490839496841F07061624A083A5A
:104DF00051603CE06149884206D1011F096841F0D9
:104E00000F01021F116032E05C491431884208D161
:104E10005A49091F096841F0F001584A121F1160F0
:104E200025E056492831884208D15449091F0968AC
:104E300041F47061514A121F116018E04F493C3132
:104E4000884208D14D49091F096841F470414B4A15
:104E5000121F11600BE049495031884207D1474980
:104E6000091F096841F47021444A121F11607047FC
:104E700010B50022026847F6F0739A430C6A8B68FB
:104E800023430C6923434C6923438C692343CC6936
:104E900023434C6A23438C6A23431A430260CB6842
:104EA00043600B6883604B68C36010BD00210160E4
:104EB00041608160C160016141618161C1610162E4
:104EC00041628162704721B1026842F001020260D2
:104ED00004E002684FF6FE731A40026070471AB190
:104EE00003680B43036002E003688B430360704771
:104EF000416070470146486880B270470146002013
:104F0000002201F080531BB11C4B083B1A6802E0E1
:104F1000194B083B1A6802EA01030BB1012000E0BB
:104F20000020704700F0805119B11449091F086032
:104F300002E011490839486070470146002000220C
:104F400001F080531BB10D4B083B1A6802E00A4B7D
:104F5000083B1A6802EA01030BB1012000E00020BF
:104F6000704700F0805119B10449091F086002E040
:104F700001490839486070470800024008040240AF
:104F8000002044490860091D0860091D0860091DCA
:104F9000086041483F4914310860704700213D498D
:104FA0008279002A3AD00A46126803689A430B466F
:104FB0001A600A1D126803689A430B1D1A60027971
:104FC00011440A6803681A430A60324A08321268B8
:104FD00003689A432F4B08331A601A1D126803683E
:104FE0009A432C4B0C331A604279102A0ED11A1FA7
:104FF000126803681A43274B08331A601A1D126897
:1050000003681A43234B0C331A600DE0214942799F
:1050100011440A6803681A430A6005E002791144E2
:105020000A6803689A430A607047002101600171B1
:105030000C214171002181717047164910310968B6
:105040000143144A10321160704701460020114A92
:10505000143212680A400AB1012000E000207047B3
:105060000C49143108607047014600200022094BAA
:105070001B6803EA0102074B14331B680B4013B192
:105080000AB1012000E00020704702491431086095
:105090007047000000040140FFFF0F0010B50446F8
:1050A000BE48844208D101218014FEF7E3FC0021B0
:1050B000A014FEF7DFFC16E0B948844208D10121B4
:1050C0000014FEF7E4FC00212014FEF7E0FC0AE0E7
:1050D000B448844207D10121C013FEF7D8FC002157
:1050E000E013FEF7D4FC10BD10B50022028802F4D4
:1050F00041520B884C8823438C882343CC8823431C
:105100000C8923434C8923438C892343CC89234333
:105110001A430280838B4FF2FF74234083830B8AF0
:10512000038210BD2DE9F04F85B005460C464FF0C7
:10513000000902274FF000084FF0010B0026B2468D
:10514000A88B4FF240010840A88302202884B5F8BC
:105150001C90A068022801D100BF38E0A08810B9D7
:105160004FF0010B01E04FF0020B8D48854200D15A
:1051700000E000BF6846FEF7F6FBDDF800A0E0881F
:10518000B0F5007F0AD14FEA1A2000EB8000400002
:10519000A168B0FBF1F0401D86B20BE04FEA4B1066
:1051A000BAFBF0F000EB80004000A168B0FBF1F02A
:1051B000401D86B20A20B6FBF0F606F00108A6EB09
:1051C0000800C0F34F074FF6FF7000EA0828022FCF
:1051D00001DBFF2F02DD02274FF00008E08840EAE4
:1051E000080038432884A088A189084361880843BF
:1051F0002188084340F4006040EA0909A5F81C90A2
:1052000005B0BDE8F08F0021018041808180C18020
:10521000018141818181C181072101827047002183
:10522000018041808180C1800221816000218181D3
:10523000704721B1028842F04002028004E00288F7
:105240004FF6BF731A400280704721B1828B42F43F
:105250008062828304E0828B4FF6FF331A408283A0
:10526000704730B5002400230C110125A540ABB2D6
:105270001AB185881D43858002E085889D4385801D
:1052800030BD1AB183880B43838002E083888B434F
:1052900083807047818170470146888970474FF647
:1052A000FF62914204D0028842F48072028004E0DE
:1052B00002884FF6FF631A400280704721B182884E
:1052C00042F00402828004E082884FF6FB731A40A9
:1052D0008280704702884FF2FF731A400280028872
:1052E0000A4302807047018841F480510180704771
:1052F00021B1028842F40052028004E002884DF697
:10530000FF731A400280704702460020012901D035
:10531000108B00E0908A70470146088A7047B1F50B
:10532000804F04D1028842F48042028004E0028867
:105330004BF6FF731A400280704702460020138923
:105340000B400BB1012000E000207047CA430281EE
:105350007047F0B50246002000240023002501F02C
:105360000F070126BE40B4B20B1101269E40B3B216
:10537000968806EA03051689264016B10DB101206C
:1053800000E00020F0BD10B5002201F00F04012361
:10539000A3409AB2D343038110BD00000030014006
:1053A00000380040003C004040EA01039B0703D066
:1053B00009E008C9121F08C0042AFAD203E011F854
:1053C000013B00F8013B521EF9D27047D2B201E016
:1053D00000F8012B491EFBD270470022F6E710B5FA
:1053E00013460A4604461946FFF7F0FF204610BD53
:1053F00010B5044604E00B7800F8013B03B1491CEA
:10540000521EF8D2204610BD421C10F8011B002984
:10541000FBD1801A7047000070B50F4D00B92868A5
:10542000002412E00A4602E09E4203D0521C137888
:10543000002BF9D1DAB2224305D02BB124B10021DF
:1054400000F8011B04E00446401C0678002EE9D158
:105450002860204670BD000078080020F0B480EA83
:105460000102D40F4200B2EB410F02D202460846BD
:1054700011464A0042D0C30DDDB2C1F3C752AD1A86
:10548000202D35DAC1F3160141F4000204B1524275
:10549000C5F1200602FA06F12A411044B3EBD05FB1
:1054A00023D0C4B1012DA0EBC35009DCF0BC4FF0F8
:1054B000004202EAC352DBB200F5000000F08ABAF3
:1054C000400000F1807000EBC350A0F1807040EA12
:1054D000D170490009E0490841EAC071A0EBC3500E
:1054E00000F50000400800EBC350F0BC00F069BAC2
:1054F0006142012202EB4101001BF6E7F0BC70475C
:1055000081F00041AAE780F00040A7E780EA0102AD
:1055100010B502F00043400022D04A001FD0010E17
:1055200001EB1261C0F35600C2F3560240F40000D2
:1055300042F40002A0FB022000047F39140400D0D2
:10554000401C50EA124001D44000491EC2B20C0671
:1055500004EBD010401C4008802A02D003E0002059
:1055600010BD20F00100002900DA0020184310BD12
:1055700030B480EA010202F0004530F0004221F030
:10558000004013D090B1C30DD40DC2F31601C0F387
:105590001600E41A41F4000140F400027D34914207
:1055A00001D3641C00E04900002C02DA30BC00206A
:1055B00070474FF400000023914201D3891A03433E
:1055C00040084FEA4101F7D151B1914202D14FF069
:1055D000004105E002D24FF0010101E06FF001014E
:1055E00003EBC450284430BC00F0EBB92DE9FE4F6A
:1055F000804681EA0300C00F0C46009021F0004174
:1056000023F00045B8EB0200A94105D240462146EF
:1056100090461C460B46024623F00040104347D0FC
:10562000270DC7F30A00C3F30A510290401A0190F4
:1056300040286BDAC3F3130040F4801B00989246B5
:1056400020B10023D2EB030A63EB0B0B0198594600
:10565000C0F14002504600F083F906460D46504620
:105660005946019A00F09BF910EB080061410024B3
:1056700087EA115284EAE7731A4340D0009A62B372
:10568000019A012A4FEA075215DC001B61EB020167
:105690004FF0004202EA0752CDE90042001C41F5FA
:1056A000801132462B4600F0D2F903B0BDE8F08FEE
:1056B00040462146F9E7001B61EB0201001C41F561
:1056C000801300185B412018A2F5001747EB030177
:1056D00040EAD570B6196D4111E06D084FEA360603
:1056E00045EAC0754FEA0752001B61EB0201001C3E
:1056F00041F5801149084FEA300000195141324606
:105700002B4603B0BDE8F04F00F092B9009801229B
:1057100040000023D0EB020263EBE07300982146C7
:105720004FEAE074B8EB000061EB0401E9E783F0B5
:1057300000435BE781F0004158E72DE9FE4F81EA25
:10574000030404F0004421F0004100944FF0000BEA
:1057500023F0004350EA01045ED052EA03045BD018
:10576000C3F30A54C1F30A552C44A4F2F334019450
:10577000A0FB0254C1F3130141F48011C3F31303DE
:1057800043F4801301FB024400FB034E840A970A92
:1057900044EA815447EA8357A4FB076802958D0ABF
:1057A00005FB07854FEA932C04FB0C542705029D4B
:1057B0004FEA065847EA1637B5EB08056EEB070CBB
:1057C000870E920E47EA811742EA8312A7FB020175
:1057D000B6EB0B0164EB00042B0D43EA0C335E18AF
:1057E00044EB1C50DA465146E7FB0201C5F31304B3
:1057F0004FEA0B3343EA14534FEA0432019C43EA65
:105800000603A4F10C040294009CCDE900B400F05E
:105810001EF903B0BDE8F08F00200146F9E7C10F83
:1058200080EAE0700844CA079623002100F0D2B84D
:1058300096230022114600F0CDB80EB5C10F80EAC4
:10584000E0700844CA07002140F233438DE80E009F
:105850000A460B4600F0FBF803B000BD0EB540F25F
:10586000334102910021CDE900110A460B4600F0B8
:10587000EEF803B000BD00F0004220F00040C10D82
:10588000C0F3160040F400007F2901DA00207047C1
:10589000962903DCC1F19601C84001E096398840A1
:1058A000002AF4D04042704720F00040C10DC0F300
:1058B000160040F400007F2901DA00207047962985
:1058C00003DCC1F19601C8407047963988407047A3
:1058D000C1F30A5210B5C1F3130140F2FF3341F492
:1058E00080119A4201DA002010BD40F233439A42FF
:1058F000A2F2334203DC524200F041F810BD904066
:1059000010BD000030B5041E71F1000404DB4FF03F
:105910000044404264EB0101141E73F1000405DBF6
:105920001C464FF00043524263EB0403994208BF08
:10593000904230BD30B50B460146002020220124A4
:1059400009E021FA02F59D4205D303FA02F5491B4D
:1059500004FA02F52844151EA2F10102F1DC30BD63
:10596000202A04DB203A00FA02F10020704791401F
:10597000C2F1200320FA03F3194390407047202A14
:1059800004DB203A21FA02F00021704721FA02F3E9
:10599000D040C2F120029140084319467047202AA6
:1059A00006DBCB17203A41FA02F043EAE07306E047
:1059B00041FA02F3D040C2F1200291400843194657
:1059C00070470029A8BF7047401C490008BF20F05D
:1059D0000100704710B4B0FA80FC00FA0CF050EAF5
:1059E000010404BF10BC704749B1CCF1200421FA76
:1059F00004F411FA0CF118BF012121430843A3EB71
:105A00000C01CB1D4FEA00614FEA102042BF00207D
:105A100010BC704700EBC35010440029A4BF10BC59
:105A20007047401C490008BF20F0010010BC7047BF
:105A300010B5141E73F1000408DA401C41F1000196
:105A400092185B411A4301D120F0010010BD2DE9ED
:105A5000F04D92469B4611B1B1FA81F202E0B0FAE4
:105A600080F220329046FFF77BFF04460F4640EA63
:105A70000A0041EA0B0153465A46084313D0114627
:105A800053EA010019D0C8F140025046FFF777FFF2
:105A900005460E46504659464246FFF761FF084309
:105AA00005D0012004E020463946BDE8F08D0020F5
:105AB000054346EAE0762C4337430A986305E40A37
:105AC000A0EB08000022FD0A44EA47540A3002D540
:105AD00000200146E9E7010510196941DDE90845A3
